:0300000002098B67
:0C098B00787FE4F6D8FD75813F0209D2A8
:10082F0056743D00567C4F70743D5033370052451F
:10083F005449465F434F4E54524F4C41444F004131
:10084F006A757374655F566F75742020203D310093
:10085F00436F6E6669675F4469737061726F3D3293
:10086F000056414C4F525F4D4544494F203D31009A
:10087F0056414C4F525F45464943415A203D320045
:10088F00494E534952412056414C204D45443A0060
:10089F00567C564C543D50303600494E53495241C8
:1008AF002056414C204546493A0053494E474C4546
:1008BF005F50554C5345203D31005452454D5F44D8
:1008CF00455F50554C534F3D320053494E474C45B1
:1008DF002050554C5345005452454D5F44455F5091
:0508EF00554C534F00C1
:100C79000229000002270000022B000102210000C6
:100C8900023B000002350000023E0000022D000078
:100C9900022F00000231000002330000022500008B
:040CA9000223000022
:090D0F00120D3ED2A17F057E0009
:100D1800E4FDFCC3ED9FEE6480F8EC648098501508
:100D2800E4FBFA0BBB00010AEB64644A70F50DBDE5
:050D380000010C80DE4B
:010D3D002293
:100D3E00EF30E004D2A28002C2A2EF30E104D2A3CF
:100D4E008002C2A3EF30E204D2A48002C2A4EF302C
:080D5E00E303D2A522C2A52285
:070D66007E00120D187F034F
:080D6D00C2A0120D0FC2A12269
:0A0D8400E4FF120D6D7F01020D6DFA
:070BFF00120D847D017F014E
:040C06008F10A9059D
:100C0A00E510B4010FE92480FFF5117804A2E71377
:100C1A00D8FB8012E510B4021EE924C0FFF5117852
:100C2A0004A2E713D8FBF512EF540FF513AF121213
:070C3A000D6DAF13120D6DEB
:010C41002290
:100C4200E4FF120D3E7FC8120D667F32120D667FE1
:100C52006E120D667F02120D6D7F02120D6D7F08FE
:100C6200120D6DE4FF120D6D7F0C120D6DE4FF127B
:070C72000D6D7F06020D6D00
:1008F4007FD07E07120CE9120BB7EF3395E0F50EAB
:100904008F0F120963850E2D850F2E7FD07E07125F
:100914000CE9120BB7EF3395E0F50E8F0F12096354
:10092400850E2F850F307FD07E07120CE97F2C12A5
:1009340009637FD07E07120CE9120BB7EF3395E001
:10094400F50E8F0F120963850E31850F327FD07E2D
:0F09540007120CE9120BB7EF3395E0F50E8F0F7A
:02096300AE07DD
:10096500EE540FF9EE54F0FFD2A07804A2E713D8A5
:10097500FBFF120D0FC2A1AF01120D3ED2A17F05E3
:05098500120D18C2A1D3
:01098A00224A
:060CAE007BFF7A08792F9C
:060CB4008B108A11891269
:100CBA00E4F513F514AB10AA11A912851482851351
:100CCA008312060CFF600D1209630514E51470E522
:040CDA00051380E19D
:010CDE0022F3
:0A0D8E007F01120D6D7F0C020D6D48
:0A0D98007F01120D6D7F08020D6D42
:100A1700E4FDFCD2B5D295D297C2B5C297D297C2A0
:100A270097D295D297C297D295D297C297A20092A2
:100A370095D297C297A2019295D297C297D297C2A1
:100A470097D2977B0BC29730961574017E00A80347
:100A5700088005C333CE33CED8F94205EE4204D21F
:100A6700971BC3EB6480948050DBD2B5AE04AF050F
:100A7700E41205527B6F7A12798378401203A77BC1
:0A0A8700007AF0797F78451204B080
:010A91002242
:0F0D7500759852758920758DF3D28E75A89322CB
:100A92008F138E128D118C10E4FFFE7D7A7C44AB95
:100AA20013AA12A911A8101203A712058B8E358F53
:100AB200367C037DE812064B8F3AAE35AF367C03A7
:100AC2007DE812064BAA04AB057D647C00AF03AE41
:100AD2000212064B8F397D647C00AF03AE02120610
:100AE2004BAA04AB057D0A7C00AF03AE0212064B93
:100AF2008F387D0A7C00AF03AE0212064B8D37227F
:100B0200E4FEEF24FE602014603314604624037078
:100B1200562084027E312085027E342086027E3772
:100B22002087447E2A80402084027E322085027EF5
:100B3200352086027E3820872E7E30802A2084024D
:100B42007E332085027E362086027E392087187EFB
:100B52002380142084027E2B2085027E2D20860293
:090B62007E2A2087027E2FAF06D7
:010B6B002267
:100BB700E4FE7580FF7D01ED24FE60171460242498
:100BC70002702EC280EE7007AF05120B02AE07D27D
:100BD70080801EC281EE7007AF05120B02AE07D2EE
:100BE70081800EC282EE7007AF05120B02AE07D2EC
:070BF700820DBD05C2AF062F
:010BFE0022D4
:0A0CDF00850E33850F347FD07E07A9
:100CE900E4FDFCC3ED9FEE6480F8EC648098501538
:100CF900E4FBFA0BBB00010AEB64644A70F50DBD15
:050D090000010C80DE7A
:010D0E0022C2
:03000300020B6C81
:100B6C00C0E0C0D075D000C000C002C003C004C03B
:100B7C0005C006C007208613120D84C2B17527006C
:100B8C00752800752500752600C2A87523007524EC
:100B9C0000A2A6B392A6D28CD007D006D005D00462
:0B0BAC00D003D002D000D0D0D0E03247
:03000B000206E406
:1006E400C0E0C0D075D000C000C006C007E52445F6
:1006F400237061E52C6401452B7059758CFF758A54
:10070400380522E522AE21700205211464164E70CC
:1007140014C28CC2A70524E52470020523752100A8
:10072400752200D28CD3E522953FE53E6480F8E53E
:1007340021648098401CE53F2404FFE4353EFEC359
:10074400E5229FEE6480F8E5216480985004D2A7E6
:100754008002C2A7E52464014523705FE52C64018F
:10076400452B7057758CFF758A380522E522AE211A
:10077400700205211464164E7012C28C0524E524FF
:1007840070020523752100752200D28CD3E52295D1
:100794003FE53E6480F8E521648098401CE53F24F1
:1007A40004FFE4353EFEC3E5229FEE6480F8E521B4
:1007B4006480985004D2B48002C2B4E52464024533
:1007C40023705DE52C6401452B7055758CFF758A8B
:1007D400380522E522AE21700205211464164E70FC
:1007E40010C28C0524E524700205237521007522AE
:1007F40000D3E522953FE53E6480F8E521648098C6
:10080400401CE53F2404FFE4353EFEC3E5229FEE91
:100814006480F8E5216480985004D2B58002C2B5A2
:0B082400D007D006D000D0D0D0E032CA
:10000E00E4F50BF50AF509F508F50CF50DF50EF509
:10001E000F758901D2AFD2A9D288758CFF758A1857
:10002E00120C42020373E52845277070E526640121
:10003E0045256068D200C201120A178F0B8E0A8DF9
:10004E00098C08120A92E4FD7F01120C06120CAE06
:10005E00E53A2430FF1209637F2C120963E5392437
:10006E0030FF120963E5382430FF1209637BFF7AF3
:10007E00087933120CB4E4FD7F02120C067BFF7A72
:10008E0008793D120CB4E526640145257002D2A80C
:10009E0020B709752700752801120D84E528640123
:1000AE004527703CFD7F01120C067BFF7A08794EC6
:1000BE00120CB4E4FD7F02120C067BFF7A08795F06
:1000CE00120CB4120BB7BF310875270075280280C9
:1000DE000C120BB7BF3209752700752803120D8459
:1000EE00E528640245276003020326120C027BFFFB
:1000FE007A087970120CB47D017F02120C067BFF18
:10010E007A08797F120CB4120BB7EF6431600302D8
:10011E0001EB120BFF7BFF7A08798F120CB47D0175
:10012E007F02120C061208F4120CDFE53024D0FF09
:10013E00E52F34FFFE7C007D64120639AA06AB075C
:10014E00E52E24D0FFE52D34FFFE7C037DE812065C
:10015E0039EF2BFBEE3AFAE53224D0FFE53134FFCE
:10016E00FE7C007D0A120639EF2BFFEE3AFEE534D7
:10017E0024D0CDE53334FFCD2FFFED3EFE7D64124E
:10018E00064B8E0C8F0DE50C704BE50D146019149B
:10019E00601F14602514602B1460312405703675B1
:1001AE003E00753F160202D9753E00753F140202DD
:1001BE00D9753E00753F130202D9753E00753F0D8D
:1001CE000202D9753E00753F040202D9753E0075D4
:1001DE003F020202D9E4F53EF53F0202D9120BB7F7
:1001EE00EF64326003020326120BFF7BFF7A08795D
:1001FE00A9120CB47D017F02120C061208F4120C27
:10020E00DFE53024D0FFE52F34FFFE7C007D641245
:10021E000639AA06AB07E52E24D0FFE52D34FFFEE6
:10022E007C037DE8120639EF2BFBEE3AFAE5322419
:10023E00D0FFE53134FFFE7C007D0A120639EF2B2C
:10024E00FFEE3AFEE53424D0CDE53334FFCD2FFF5B
:10025E00ED3EFE7D6412064B8E0C8F0DE50C706626
:10026E00E50DB40800505F90027CF8282873020256
:10027E009402029C0202A40202AC0202B40202BC6C
:10028E000202C40202CC753E00753F16803D753EDB
:10029E0000753F158035753E00753F13802D753EF8
:1002AE0000753F118025753E00753F0E801D753E11
:1002BE0000753F0C8015753E00753F09800D753E2B
:1002CE0000753F058005E4F53EF53F120D84E4FD13
:1002DE007F01120C06120CAEAF2E120963AF301254
:1002EE0009637F2C120963AF321209637BFF7A0810
:1002FE00799F120CB4E4FD7F02120C067BFF7A0884
:10030E00793D120CB47FE87E03120CE9E4F527F573
:10031E0028F525752601D2A8E52864034527600334
:10032E00020034FD7F01120C067BFF7A0879B912A8
:10033E000CB4E4FD7F02120C067BFF7A0879C91219
:10034E000CB4120BB7BF3123120BFF7BFF7A087967
:10035E00D9120CB47FE87E03120CE9E4F527F528D8
:10036E00F52B752C01120D84020034120BB7EF64BD
:10037E00326003020034120BFF7BFF7A0879E6121B
:10038E000CB47FE87E03120CE9E4F527F528F52B73
:09039E00752C02120D84020034DA
:1003A700EC4D6011E8497017ED33EC3304600DE450
:1003B700FCFFFEFD22E933E8330470F80205F7126B
:1003C70005C258046009E4CC24815006285009026C
:1003D70006012840030205FEC0E0EB4A7044B980DD
:1003E70006D0E0FB0205EDEF4E701CBD8008EBFF69
:1003F700EAFEE9FD80EBE98DF0A4FEE5F00204904A
:10040700E9CDF9EAFEEBFFEF89F0A4FCE5F0CE8930
:10041700F0A42EFFE435F0CD89F0A42DFEE435F0ED
:100427008067EF4E7005BD80D780C3EF8BF0A4AC1B
:10043700F0EE8BF0A42CFCE435F0F8EF8AF0A42C56
:10044700E5F038FCE433CB8DF0A42CFCE5F03BF869
:10045700EE8AF0A42CFCE5F038F8E433CF89F0A459
:100467002CFCE5F038CF3400CE89F0A42FFFE5F05F
:100477003EFEE433C98DF0A42EFEE5F039CD8AF0B7
:10048700A42FFFE5F03EFEE43DFD33D0E0FB50072F
:100497000BBB000F020601EC2CFCEF33FFEE33FE23
:0604A700ED33FD0205D952
:1004AD00020601EC5D046005E8590470030205F7CE
:1004BD001205C2580460F6EC4860F2EC7004FDFEC3
:1004CD00FF22C860DB2481C85009C3986002500622
:1004DD000205FE9850CAF582E9294B4A7005AB8298
:1004ED000205ED75F0007C1A7880C3EF9BEE9AED56
:1004FD0099400DC3EF9BFFEE9AFEED99FDE842F09A
:10050D00DC23ACF0D0E0FFD0E0FED0E0FDAB8220EC
:10051D00E7101BEB60BAEC2CFCEF33FFEE33FEED76
:10052D0033FD0205D9E803F830E705C0F075F0009A
:10053D00EF2FFFEE33FEED33FD40B830E7C280AA5A
:10054D0075F020800E75F010800575F0087D007E29
:10055D00007F003392D530D503120681EC33401065
:10056D00EF33FFEE33FEED33FDEC33FCD5F0ED2232
:0E057D00E5F0247EA2D513CC92E7CDCEFF226E
:10058B00EDD2E7CD33EC3392D524814006E4FFFE68
:10059B00FDFC22FCE4CFCECDCC24E0501174FF80C7
:1005AB00EDC3CC13CCCD13CDCE13CECF13CF047064
:0705BB00F030D5DE020681DD
:1005C200E9D2E7C933E833F892D5EDD2E7CD33EC7F
:0705D20033FC5002B2D522F8
:1005D900EC30E7100FBF000C0EBE00080DBD000483
:1005E9000BEB6014A2D5EB13FCED92E7FD2274FF2F
:1005F900FCFDFEFF22E480F8A2D574FF13FC7D8088
:03060900E480EF9B
:1009970002000EE493A3F8E493A34003F68001F268
:1009A70008DFF48029E493A3F85407240CC8C33361
:1009B700C4540F4420C8834004F456800146F6DF30
:1009C700E4800B0102040810204080900C79E47E3B
:1009D700019360BCA3FF543F30E509541FFEE49325
:1009E700A360010ECF54C025E060A840B8E493A3EC
:1009F700FAE493A3F8E493A3C8C582C8CAC583CA17
:100A0700F0A3C8C582C8CAC583CADFE9DEE780BECE
:010CAD000046
:10060C00BB010CE58229F582E5833AF583E02250A3
:10061C0006E92582F8E622BBFE06E92582F8E222ED
:0D062C00E58229F582E5833AF583E4932207
:10063900EF8DF0A4A8F0CF8CF0A428CE8DF0A42ED5
:02064900FE228F
:10064B00C2D5EC30E709B2D5E4C39DFDE49CFCEECA
:10065B0030E715B2D5E4C39FFFE49EFE12068FC3AD
:10066B00E49DFDE49CFC800312068F30D507C3E4A8
:06067B009FFFE49EFE2239
:0E068100C3E49FFFE49EFEE49DFDE49CFC228A
:10068F00BC000BBE0029EF8DF084FFADF022E4CC4F
:10069F00F875F008EF2FFFEE33FEEC33FCEE9DEC18
:1006AF00984005FCEE9DFE0FD5F0E9E4CEFD22ED5E
:1006BF00F8F5F0EE8420D21CFEADF075F008EF2FA8
:1006CF00FFED33FD4007985006D5F0F222C398FD99
:0506DF000FD5F0EA2236
:00000001FF
